:1000000000308A007D2900000A108A100A11820738
:1000100028340C34013406340A108A100A1182077D
:100020000C3441344334203456346F346C347434DB
:1000300061346734653473343D3425344C3455347D
:10004000563400342E3084008313000803193628F8
:100050000130F800F701F70B2B28F80B2A284A305B
:10006000F700F70B31283428800B28280034350E90
:10007000F039F7000F3008057704880000000814F5
:100080004128081000348810F0308316880083124D
:1000900008150000081400000808080E0F39B50004
:1000A00008100000081400000808080E0F39B400FA
:1000B00008100030831688008312350EF700F030E8
:1000C000F70577083404F8007808B400B41B442816
:1000D000321C881032188814000008110000081023
:1000E000330EB4000F30B4053408B50037203308A0
:1000F0000F39B400B5003720003400308316880073
:1001000083128810081108100F30AE002220013031
:10011000A3002308033C031C95280330B5003720B7
:100120000530AE002220A30A89280230B50037200E
:10013000A3012308033C031CA62823080420A400D1
:10014000B2012408B3004320A30A99288A110A1295
:100150009129A301A4011F141F151F19AD281E0802
:10016000A40083161E088312A3002308F8002408A5
:10017000F9008A110A129229F801F901F701FA012E
:100180002608031DC62825080319E0281030A700FB
:100190000310A30DA40DF70DFA0D26087A02031D16
:1001A000D32825087702031CDC282508F702031C46
:1001B000FA032608FA020314F80DF90DA70BC82854
:1001C0008A110A129E292D080C3A0319EE28063AC4
:1001D0000319F628023A03190C291129B20101303A
:1001E000B30043200230AE00222017290130AE00B8
:1001F0000230AF002F0BFD2800294030B00001294C
:10020000B00101302E02B00730088038B100B201D1
:100210003108B30043201729B2011030B300432046
:1002200017290130B2002D08B300432017290034EC
:10023000AC010408AB002C10831B2C14250EF038E5
:10024000A700A707E23EA800323EAA0025080F3902
:10025000A807A807AA07E93EA900A907A907240E2D
:100260000F39A907AA07A90DAA0DAA09AA0D2408E2
:100270000F39AA07A70D0730A6000A30AA07A9035D
:10028000031C3E29A907A803031C4229A807A703AA
:10029000031C4629A707A603031C4A29263084000D
:1002A000831307302B052B1384072A30040203190C
:1002B0002B170008F700031D65292B1B65292B1A36
:1002C0007729AB19652920306829AB152B123030FE
:1002D000F707A5010408A4002510831B251477083F
:1002E000AD00E32024088400831325188317840AB3
:1002F0002B1F55298A110A12B429840183131F3038
:10030000830583161F149F141F159F1107309C002F
:10031000FF308500403083129F0083169F018312B7
:100320007D28A9287908A2007808A1002208A40045
:100330002108A300A6017930A500BC287908A200F5
:100340007808A100A30123080C20A30AF700AD0040
:10035000E3200D302302031DA3291030840022085E
:10036000A5002108A40018295630AD00E3200A306A
:10037000A300BE30AE002220A30BB929912963004F
:02400E00713F00
:00000001FF
;PIC16F877A
